{
  "_format": "hh-sol-artifact-1",
  "contractName": "ERC1155MintableBurnable",
  "sourceName": "contracts/tokens/ERC1155MintableBurnable.sol",
  "abi": [
    {
      "inputs": [
        {
          "internalType": "string",
          "name": "name_",
          "type": "string"
        },
        {
          "internalType": "string",
          "name": "symbol_",
          "type": "string"
        },
        {
          "internalType": "string",
          "name": "uri_",
          "type": "string"
        },
        {
          "internalType": "address",
          "name": "owner_",
          "type": "address"
        }
      ],
      "stateMutability": "nonpayable",
      "type": "constructor"
    },
    {
      "anonymous": false,
      "inputs": [
        {
          "indexed": true,
          "internalType": "address",
          "name": "account",
          "type": "address"
        },
        {
          "indexed": true,
          "internalType": "address",
          "name": "operator",
          "type": "address"
        },
        {
          "indexed": false,
          "internalType": "bool",
          "name": "approved",
          "type": "bool"
        }
      ],
      "name": "ApprovalForAll",
      "type": "event"
    },
    {
      "anonymous": false,
      "inputs": [
        {
          "indexed": true,
          "internalType": "address",
          "name": "previousOwner",
          "type": "address"
        },
        {
          "indexed": true,
          "internalType": "address",
          "name": "newOwner",
          "type": "address"
        }
      ],
      "name": "OwnershipTransferred",
      "type": "event"
    },
    {
      "anonymous": false,
      "inputs": [
        {
          "indexed": true,
          "internalType": "address",
          "name": "operator",
          "type": "address"
        },
        {
          "indexed": true,
          "internalType": "address",
          "name": "from",
          "type": "address"
        },
        {
          "indexed": true,
          "internalType": "address",
          "name": "to",
          "type": "address"
        },
        {
          "indexed": false,
          "internalType": "uint256[]",
          "name": "ids",
          "type": "uint256[]"
        },
        {
          "indexed": false,
          "internalType": "uint256[]",
          "name": "values",
          "type": "uint256[]"
        }
      ],
      "name": "TransferBatch",
      "type": "event"
    },
    {
      "anonymous": false,
      "inputs": [
        {
          "indexed": true,
          "internalType": "address",
          "name": "operator",
          "type": "address"
        },
        {
          "indexed": true,
          "internalType": "address",
          "name": "from",
          "type": "address"
        },
        {
          "indexed": true,
          "internalType": "address",
          "name": "to",
          "type": "address"
        },
        {
          "indexed": false,
          "internalType": "uint256",
          "name": "id",
          "type": "uint256"
        },
        {
          "indexed": false,
          "internalType": "uint256",
          "name": "value",
          "type": "uint256"
        }
      ],
      "name": "TransferSingle",
      "type": "event"
    },
    {
      "anonymous": false,
      "inputs": [
        {
          "indexed": false,
          "internalType": "string",
          "name": "value",
          "type": "string"
        },
        {
          "indexed": true,
          "internalType": "uint256",
          "name": "id",
          "type": "uint256"
        }
      ],
      "name": "URI",
      "type": "event"
    },
    {
      "inputs": [
        {
          "internalType": "address",
          "name": "account",
          "type": "address"
        },
        {
          "internalType": "uint256",
          "name": "id",
          "type": "uint256"
        }
      ],
      "name": "balanceOf",
      "outputs": [
        {
          "internalType": "uint256",
          "name": "",
          "type": "uint256"
        }
      ],
      "stateMutability": "view",
      "type": "function"
    },
    {
      "inputs": [
        {
          "internalType": "address[]",
          "name": "accounts",
          "type": "address[]"
        },
        {
          "internalType": "uint256[]",
          "name": "ids",
          "type": "uint256[]"
        }
      ],
      "name": "balanceOfBatch",
      "outputs": [
        {
          "internalType": "uint256[]",
          "name": "",
          "type": "uint256[]"
        }
      ],
      "stateMutability": "view",
      "type": "function"
    },
    {
      "inputs": [
        {
          "internalType": "address",
          "name": "payer_",
          "type": "address"
        },
        {
          "internalType": "uint256",
          "name": "tokenId_",
          "type": "uint256"
        },
        {
          "internalType": "uint256",
          "name": "amount_",
          "type": "uint256"
        }
      ],
      "name": "burnFrom",
      "outputs": [],
      "stateMutability": "nonpayable",
      "type": "function"
    },
    {
      "inputs": [
        {
          "internalType": "uint256",
          "name": "id",
          "type": "uint256"
        }
      ],
      "name": "exists",
      "outputs": [
        {
          "internalType": "bool",
          "name": "",
          "type": "bool"
        }
      ],
      "stateMutability": "view",
      "type": "function"
    },
    {
      "inputs": [
        {
          "internalType": "address",
          "name": "account",
          "type": "address"
        },
        {
          "internalType": "address",
          "name": "operator",
          "type": "address"
        }
      ],
      "name": "isApprovedForAll",
      "outputs": [
        {
          "internalType": "bool",
          "name": "",
          "type": "bool"
        }
      ],
      "stateMutability": "view",
      "type": "function"
    },
    {
      "inputs": [
        {
          "internalType": "address",
          "name": "receiver_",
          "type": "address"
        },
        {
          "internalType": "uint256",
          "name": "tokenId_",
          "type": "uint256"
        },
        {
          "internalType": "uint256",
          "name": "amount_",
          "type": "uint256"
        },
        {
          "internalType": "string",
          "name": "tokenURI_",
          "type": "string"
        }
      ],
      "name": "mintTo",
      "outputs": [],
      "stateMutability": "nonpayable",
      "type": "function"
    },
    {
      "inputs": [],
      "name": "name",
      "outputs": [
        {
          "internalType": "string",
          "name": "",
          "type": "string"
        }
      ],
      "stateMutability": "view",
      "type": "function"
    },
    {
      "inputs": [],
      "name": "owner",
      "outputs": [
        {
          "internalType": "address",
          "name": "",
          "type": "address"
        }
      ],
      "stateMutability": "view",
      "type": "function"
    },
    {
      "inputs": [],
      "name": "renounceOwnership",
      "outputs": [],
      "stateMutability": "nonpayable",
      "type": "function"
    },
    {
      "inputs": [
        {
          "internalType": "address",
          "name": "from",
          "type": "address"
        },
        {
          "internalType": "address",
          "name": "to",
          "type": "address"
        },
        {
          "internalType": "uint256[]",
          "name": "ids",
          "type": "uint256[]"
        },
        {
          "internalType": "uint256[]",
          "name": "amounts",
          "type": "uint256[]"
        },
        {
          "internalType": "bytes",
          "name": "data",
          "type": "bytes"
        }
      ],
      "name": "safeBatchTransferFrom",
      "outputs": [],
      "stateMutability": "nonpayable",
      "type": "function"
    },
    {
      "inputs": [
        {
          "internalType": "address",
          "name": "from",
          "type": "address"
        },
        {
          "internalType": "address",
          "name": "to",
          "type": "address"
        },
        {
          "internalType": "uint256",
          "name": "id",
          "type": "uint256"
        },
        {
          "internalType": "uint256",
          "name": "amount",
          "type": "uint256"
        },
        {
          "internalType": "bytes",
          "name": "data",
          "type": "bytes"
        }
      ],
      "name": "safeTransferFrom",
      "outputs": [],
      "stateMutability": "nonpayable",
      "type": "function"
    },
    {
      "inputs": [
        {
          "internalType": "address",
          "name": "operator",
          "type": "address"
        },
        {
          "internalType": "bool",
          "name": "approved",
          "type": "bool"
        }
      ],
      "name": "setApprovalForAll",
      "outputs": [],
      "stateMutability": "nonpayable",
      "type": "function"
    },
    {
      "inputs": [
        {
          "internalType": "bytes4",
          "name": "interfaceId",
          "type": "bytes4"
        }
      ],
      "name": "supportsInterface",
      "outputs": [
        {
          "internalType": "bool",
          "name": "",
          "type": "bool"
        }
      ],
      "stateMutability": "view",
      "type": "function"
    },
    {
      "inputs": [],
      "name": "symbol",
      "outputs": [
        {
          "internalType": "string",
          "name": "",
          "type": "string"
        }
      ],
      "stateMutability": "view",
      "type": "function"
    },
    {
      "inputs": [
        {
          "internalType": "uint256",
          "name": "id",
          "type": "uint256"
        }
      ],
      "name": "totalSupply",
      "outputs": [
        {
          "internalType": "uint256",
          "name": "",
          "type": "uint256"
        }
      ],
      "stateMutability": "view",
      "type": "function"
    },
    {
      "inputs": [
        {
          "internalType": "address",
          "name": "newOwner",
          "type": "address"
        }
      ],
      "name": "transferOwnership",
      "outputs": [],
      "stateMutability": "nonpayable",
      "type": "function"
    },
    {
      "inputs": [
        {
          "internalType": "uint256",
          "name": "tokenId",
          "type": "uint256"
        }
      ],
      "name": "uri",
      "outputs": [
        {
          "internalType": "string",
          "name": "",
          "type": "string"
        }
      ],
      "stateMutability": "view",
      "type": "function"
    }
  ],
  "bytecode": "0x60a06040819052600060808190526200001b9160059162000203565b503480156200002957600080fd5b50604051620024aa380380620024aa8339810160408190526200004c9162000376565b816200005833620000b0565b620000638162000100565b5083516200007990600790602087019062000203565b5082516200008f90600890602086019062000203565b506200009b8262000119565b620000a6816200012e565b5050505062000466565b600080546001600160a01b038381166001600160a01b0319831681178455604051919092169283917f8be0079c531659141344cd1fd0a4f28419497f9722a3daafe3b4186f6b6457e09190a35050565b80516200011590600390602084019062000203565b5050565b80516200011590600590602084019062000203565b6000546001600160a01b031633146200018e5760405162461bcd60e51b815260206004820181905260248201527f4f776e61626c653a2063616c6c6572206973206e6f7420746865206f776e657260448201526064015b60405180910390fd5b6001600160a01b038116620001f55760405162461bcd60e51b815260206004820152602660248201527f4f776e61626c653a206e6577206f776e657220697320746865207a65726f206160448201526564647265737360d01b606482015260840162000185565b6200020081620000b0565b50565b828054620002119062000429565b90600052602060002090601f01602090048101928262000235576000855562000280565b82601f106200025057805160ff191683800117855562000280565b8280016001018555821562000280579182015b828111156200028057825182559160200191906001019062000263565b506200028e92915062000292565b5090565b5b808211156200028e576000815560010162000293565b634e487b7160e01b600052604160045260246000fd5b600082601f830112620002d157600080fd5b81516001600160401b0380821115620002ee57620002ee620002a9565b604051601f8301601f19908116603f01168101908282118183101715620003195762000319620002a9565b816040528381526020925086838588010111156200033657600080fd5b600091505b838210156200035a57858201830151818301840152908201906200033b565b838211156200036c5760008385830101525b9695505050505050565b600080600080608085870312156200038d57600080fd5b84516001600160401b0380821115620003a557600080fd5b620003b388838901620002bf565b95506020870151915080821115620003ca57600080fd5b620003d888838901620002bf565b94506040870151915080821115620003ef57600080fd5b50620003fe87828801620002bf565b606087015190935090506001600160a01b03811681146200041e57600080fd5b939692955090935050565b600181811c908216806200043e57607f821691505b602082108114156200046057634e487b7160e01b600052602260045260246000fd5b50919050565b61203480620004766000396000f3fe608060405234801561001057600080fd5b506004361061010a5760003560e01c80634f558e79116100a2578063a22cb46511610071578063a22cb46514610228578063bd85b0391461023b578063e985e9c51461025b578063f242432a14610297578063f2fde38b146102aa57600080fd5b80634f558e79146101db578063715018a6146101fd5780638da5cb5b1461020557806395d89b411461022057600080fd5b8063124d91e5116100de578063124d91e5146101805780632eb2c2d6146101955780633dbd5b25146101a85780634e1273f4146101bb57600080fd5b8062fdd58e1461010f57806301ffc9a71461013557806306fdde03146101585780630e89341c1461016d575b600080fd5b61012261011d366004611660565b6102bd565b6040519081526020015b60405180910390f35b6101486101433660046116a0565b610356565b604051901515815260200161012c565b6101606103a8565b60405161012c9190611719565b61016061017b36600461172c565b610436565b61019361018e366004611745565b610441565b005b6101936101a33660046118c4565b6104fc565b6101936101b636600461196e565b610593565b6101ce6101c9366004611a02565b61061e565b60405161012c9190611b08565b6101486101e936600461172c565b600090815260046020526040902054151590565b610193610748565b6000546040516001600160a01b03909116815260200161012c565b61016061077e565b610193610236366004611b1b565b61078b565b61012261024936600461172c565b60009081526004602052604090205490565b610148610269366004611b57565b6001600160a01b03918216600090815260026020908152604080832093909416825291909152205460ff1690565b6101936102a5366004611b8a565b61079a565b6101936102b8366004611bef565b610821565b60006001600160a01b03831661032e5760405162461bcd60e51b815260206004820152602b60248201527f455243313135353a2062616c616e636520717565727920666f7220746865207a60448201526a65726f206164647265737360a81b60648201526084015b60405180910390fd5b5060009081526001602090815260408083206001600160a01b03949094168352929052205490565b60006001600160e01b03198216636cdb3d1360e11b148061038757506001600160e01b031982166303a24d0760e21b145b806103a257506301ffc9a760e01b6001600160e01b03198316145b92915050565b600780546103b590611c0a565b80601f01602080910402602001604051908101604052809291908181526020018280546103e190611c0a565b801561042e5780601f106104035761010080835404028352916020019161042e565b820191906000526020600020905b81548152906001019060200180831161041157829003601f168201915b505050505081565b60606103a2826108bc565b6000546001600160a01b0316331461046b5760405162461bcd60e51b815260040161032590611c45565b6001600160a01b038316600090815260026020908152604080832033845290915290205460ff166104ec5760405162461bcd60e51b815260206004820152602560248201527f455243313135354d696e7461626c654275726e61626c653a206e6f74206170706044820152641c9bdd995960da1b6064820152608401610325565b6104f783838361099c565b505050565b6001600160a01b03851633148061051857506105188533610269565b61057f5760405162461bcd60e51b815260206004820152603260248201527f455243313135353a207472616e736665722063616c6c6572206973206e6f74206044820152711bdddb995c881b9bdc88185c1c1c9bdd995960721b6064820152608401610325565b61058c8585858585610b35565b5050505050565b6000546001600160a01b031633146105bd5760405162461bcd60e51b815260040161032590611c45565b6105d885858560405180602001604052806000815250610d23565b801561058c5761058c8483838080601f016020809104026020016040519081016040528093929190818152602001838380828437600092019190915250610e3f92505050565b606081518351146106835760405162461bcd60e51b815260206004820152602960248201527f455243313135353a206163636f756e747320616e6420696473206c656e677468604482015268040dad2e6dac2e8c6d60bb1b6064820152608401610325565b6000835167ffffffffffffffff81111561069f5761069f611778565b6040519080825280602002602001820160405280156106c8578160200160208202803683370190505b50905060005b8451811015610740576107138582815181106106ec576106ec611c7a565b602002602001015185838151811061070657610706611c7a565b60200260200101516102bd565b82828151811061072557610725611c7a565b602090810291909101015261073981611ca6565b90506106ce565b509392505050565b6000546001600160a01b031633146107725760405162461bcd60e51b815260040161032590611c45565b61077c6000610ea3565b565b600880546103b590611c0a565b610796338383610ef3565b5050565b6001600160a01b0385163314806107b657506107b68533610269565b6108145760405162461bcd60e51b815260206004820152602960248201527f455243313135353a2063616c6c6572206973206e6f74206f776e6572206e6f7260448201526808185c1c1c9bdd995960ba1b6064820152608401610325565b61058c8585858585610fd4565b6000546001600160a01b0316331461084b5760405162461bcd60e51b815260040161032590611c45565b6001600160a01b0381166108b05760405162461bcd60e51b815260206004820152602660248201527f4f776e61626c653a206e6577206f776e657220697320746865207a65726f206160448201526564647265737360d01b6064820152608401610325565b6108b981610ea3565b50565b6000818152600660205260408120805460609291906108da90611c0a565b80601f016020809104026020016040519081016040528092919081815260200182805461090690611c0a565b80156109535780601f1061092857610100808354040283529160200191610953565b820191906000526020600020905b81548152906001019060200180831161093657829003601f168201915b5050505050905060008151116109715761096c83611110565b610995565b600581604051602001610985929190611cdd565b6040516020818303038152906040525b9392505050565b6001600160a01b0383166109fe5760405162461bcd60e51b815260206004820152602360248201527f455243313135353a206275726e2066726f6d20746865207a65726f206164647260448201526265737360e81b6064820152608401610325565b336000610a0a846111a4565b90506000610a17846111a4565b9050610a37838760008585604051806020016040528060008152506111ef565b60008581526001602090815260408083206001600160a01b038a16845290915290205484811015610ab65760405162461bcd60e51b8152602060048201526024808201527f455243313135353a206275726e20616d6f756e7420657863656564732062616c604482015263616e636560e01b6064820152608401610325565b60008681526001602090815260408083206001600160a01b038b81168086529184528285208a8703905582518b81529384018a90529092908816917fc3d58168c5ae7397731d063d5bbf3d657854427343f4c083240f7aacaa2d0f62910160405180910390a46040805160208101909152600090525b50505050505050565b8151835114610b975760405162461bcd60e51b815260206004820152602860248201527f455243313135353a2069647320616e6420616d6f756e7473206c656e677468206044820152670dad2e6dac2e8c6d60c31b6064820152608401610325565b6001600160a01b038416610bbd5760405162461bcd60e51b815260040161032590611d84565b33610bcc8187878787876111ef565b60005b8451811015610cb5576000858281518110610bec57610bec611c7a565b602002602001015190506000858381518110610c0a57610c0a611c7a565b60209081029190910181015160008481526001835260408082206001600160a01b038e168352909352919091205490915081811015610c5b5760405162461bcd60e51b815260040161032590611dc9565b60008381526001602090815260408083206001600160a01b038e8116855292528083208585039055908b16825281208054849290610c9a908490611e13565b9250508190555050505080610cae90611ca6565b9050610bcf565b50846001600160a01b0316866001600160a01b0316826001600160a01b03167f4a39dc06d4c0dbc64b70af90fd698a233a518aa5d07e595d983b8c0526c8f7fb8787604051610d05929190611e2b565b60405180910390a4610d1b8187878787876111fd565b505050505050565b6001600160a01b038416610d835760405162461bcd60e51b815260206004820152602160248201527f455243313135353a206d696e7420746f20746865207a65726f206164647265736044820152607360f81b6064820152608401610325565b336000610d8f856111a4565b90506000610d9c856111a4565b9050610dad836000898585896111ef565b60008681526001602090815260408083206001600160a01b038b16845290915281208054879290610ddf908490611e13565b909155505060408051878152602081018790526001600160a01b03808a1692600092918716917fc3d58168c5ae7397731d063d5bbf3d657854427343f4c083240f7aacaa2d0f62910160405180910390a4610b2c83600089898989611368565b60008281526006602090815260409091208251610e5e928401906115ab565b50817f6bb7ff708619ba0610cba295a58592e0451dee2622938c8755667688daf3529b610e8a84610436565b604051610e979190611719565b60405180910390a25050565b600080546001600160a01b038381166001600160a01b0319831681178455604051919092169283917f8be0079c531659141344cd1fd0a4f28419497f9722a3daafe3b4186f6b6457e09190a35050565b816001600160a01b0316836001600160a01b03161415610f675760405162461bcd60e51b815260206004820152602960248201527f455243313135353a2073657474696e6720617070726f76616c20737461747573604482015268103337b91039b2b63360b91b6064820152608401610325565b6001600160a01b03838116600081815260026020908152604080832094871680845294825291829020805460ff191686151590811790915591519182527f17307eab39ab6107e8899845ad3d59bd9653f200f220920489ca2b5937696c31910160405180910390a3505050565b6001600160a01b038416610ffa5760405162461bcd60e51b815260040161032590611d84565b336000611006856111a4565b90506000611013856111a4565b90506110238389898585896111ef565b60008681526001602090815260408083206001600160a01b038c168452909152902054858110156110665760405162461bcd60e51b815260040161032590611dc9565b60008781526001602090815260408083206001600160a01b038d8116855292528083208985039055908a168252812080548892906110a5908490611e13565b909155505060408051888152602081018890526001600160a01b03808b16928c821692918816917fc3d58168c5ae7397731d063d5bbf3d657854427343f4c083240f7aacaa2d0f62910160405180910390a4611105848a8a8a8a8a611368565b505050505050505050565b60606003805461111f90611c0a565b80601f016020809104026020016040519081016040528092919081815260200182805461114b90611c0a565b80156111985780601f1061116d57610100808354040283529160200191611198565b820191906000526020600020905b81548152906001019060200180831161117b57829003601f168201915b50505050509050919050565b604080516001808252818301909252606091600091906020808301908036833701905050905082816000815181106111de576111de611c7a565b602090810291909101015292915050565b610d1b868686868686611432565b6001600160a01b0384163b15610d1b5760405163bc197c8160e01b81526001600160a01b0385169063bc197c81906112419089908990889088908890600401611e50565b602060405180830381600087803b15801561125b57600080fd5b505af192505050801561128b575060408051601f3d908101601f1916820190925261128891810190611eae565b60015b61133857611297611ecb565b806308c379a014156112d157506112ac611ee7565b806112b757506112d3565b8060405162461bcd60e51b81526004016103259190611719565b505b60405162461bcd60e51b815260206004820152603460248201527f455243313135353a207472616e7366657220746f206e6f6e20455243313135356044820152732932b1b2b4bb32b91034b6b83632b6b2b73a32b960611b6064820152608401610325565b6001600160e01b0319811663bc197c8160e01b14610b2c5760405162461bcd60e51b815260040161032590611f71565b6001600160a01b0384163b15610d1b5760405163f23a6e6160e01b81526001600160a01b0385169063f23a6e61906113ac9089908990889088908890600401611fb9565b602060405180830381600087803b1580156113c657600080fd5b505af19250505080156113f6575060408051601f3d908101601f191682019092526113f391810190611eae565b60015b61140257611297611ecb565b6001600160e01b0319811663f23a6e6160e01b14610b2c5760405162461bcd60e51b815260040161032590611f71565b6001600160a01b0385166114b95760005b83518110156114b75782818151811061145e5761145e611c7a565b60200260200101516004600086848151811061147c5761147c611c7a565b6020026020010151815260200190815260200160002060008282546114a19190611e13565b909155506114b0905081611ca6565b9050611443565b505b6001600160a01b038416610d1b5760005b8351811015610b2c5760008482815181106114e7576114e7611c7a565b60200260200101519050600084838151811061150557611505611c7a565b60200260200101519050600060046000848152602001908152602001600020549050818110156115885760405162461bcd60e51b815260206004820152602860248201527f455243313135353a206275726e20616d6f756e74206578636565647320746f74604482015267616c537570706c7960c01b6064820152608401610325565b600092835260046020526040909220910390556115a481611ca6565b90506114ca565b8280546115b790611c0a565b90600052602060002090601f0160209004810192826115d9576000855561161f565b82601f106115f257805160ff191683800117855561161f565b8280016001018555821561161f579182015b8281111561161f578251825591602001919060010190611604565b5061162b92915061162f565b5090565b5b8082111561162b5760008155600101611630565b80356001600160a01b038116811461165b57600080fd5b919050565b6000806040838503121561167357600080fd5b61167c83611644565b946020939093013593505050565b6001600160e01b0319811681146108b957600080fd5b6000602082840312156116b257600080fd5b81356109958161168a565b60005b838110156116d85781810151838201526020016116c0565b838111156116e7576000848401525b50505050565b600081518084526117058160208601602086016116bd565b601f01601f19169290920160200192915050565b60208152600061099560208301846116ed565b60006020828403121561173e57600080fd5b5035919050565b60008060006060848603121561175a57600080fd5b61176384611644565b95602085013595506040909401359392505050565b634e487b7160e01b600052604160045260246000fd5b601f8201601f1916810167ffffffffffffffff811182821017156117b4576117b4611778565b6040525050565b600067ffffffffffffffff8211156117d5576117d5611778565b5060051b60200190565b600082601f8301126117f057600080fd5b813560206117fd826117bb565b60405161180a828261178e565b83815260059390931b850182019282810191508684111561182a57600080fd5b8286015b84811015611845578035835291830191830161182e565b509695505050505050565b600082601f83011261186157600080fd5b813567ffffffffffffffff81111561187b5761187b611778565b604051611892601f8301601f19166020018261178e565b8181528460208386010111156118a757600080fd5b816020850160208301376000918101602001919091529392505050565b600080600080600060a086880312156118dc57600080fd5b6118e586611644565b94506118f360208701611644565b9350604086013567ffffffffffffffff8082111561191057600080fd5b61191c89838a016117df565b9450606088013591508082111561193257600080fd5b61193e89838a016117df565b9350608088013591508082111561195457600080fd5b5061196188828901611850565b9150509295509295909350565b60008060008060006080868803121561198657600080fd5b61198f86611644565b94506020860135935060408601359250606086013567ffffffffffffffff808211156119ba57600080fd5b818801915088601f8301126119ce57600080fd5b8135818111156119dd57600080fd5b8960208285010111156119ef57600080fd5b9699959850939650602001949392505050565b60008060408385031215611a1557600080fd5b823567ffffffffffffffff80821115611a2d57600080fd5b818501915085601f830112611a4157600080fd5b81356020611a4e826117bb565b604051611a5b828261178e565b83815260059390931b8501820192828101915089841115611a7b57600080fd5b948201945b83861015611aa057611a9186611644565b82529482019490820190611a80565b96505086013592505080821115611ab657600080fd5b50611ac3858286016117df565b9150509250929050565b600081518084526020808501945080840160005b83811015611afd57815187529582019590820190600101611ae1565b509495945050505050565b6020815260006109956020830184611acd565b60008060408385031215611b2e57600080fd5b611b3783611644565b915060208301358015158114611b4c57600080fd5b809150509250929050565b60008060408385031215611b6a57600080fd5b611b7383611644565b9150611b8160208401611644565b90509250929050565b600080600080600060a08688031215611ba257600080fd5b611bab86611644565b9450611bb960208701611644565b93506040860135925060608601359150608086013567ffffffffffffffff811115611be357600080fd5b61196188828901611850565b600060208284031215611c0157600080fd5b61099582611644565b600181811c90821680611c1e57607f821691505b60208210811415611c3f57634e487b7160e01b600052602260045260246000fd5b50919050565b6020808252818101527f4f776e61626c653a2063616c6c6572206973206e6f7420746865206f776e6572604082015260600190565b634e487b7160e01b600052603260045260246000fd5b634e487b7160e01b600052601160045260246000fd5b6000600019821415611cba57611cba611c90565b5060010190565b60008151611cd38185602086016116bd565b9290920192915050565b600080845481600182811c915080831680611cf957607f831692505b6020808410821415611d1957634e487b7160e01b86526022600452602486fd5b818015611d2d5760018114611d3e57611d6b565b60ff19861689528489019650611d6b565b60008b81526020902060005b86811015611d635781548b820152908501908301611d4a565b505084890196505b505050505050611d7b8185611cc1565b95945050505050565b60208082526025908201527f455243313135353a207472616e7366657220746f20746865207a65726f206164604082015264647265737360d81b606082015260800190565b6020808252602a908201527f455243313135353a20696e73756666696369656e742062616c616e636520666f60408201526939103a3930b739b332b960b11b606082015260800190565b60008219821115611e2657611e26611c90565b500190565b604081526000611e3e6040830185611acd565b8281036020840152611d7b8185611acd565b6001600160a01b0386811682528516602082015260a060408201819052600090611e7c90830186611acd565b8281036060840152611e8e8186611acd565b90508281036080840152611ea281856116ed565b98975050505050505050565b600060208284031215611ec057600080fd5b81516109958161168a565b600060033d1115611ee45760046000803e5060005160e01c5b90565b600060443d1015611ef55790565b6040516003193d81016004833e81513d67ffffffffffffffff8160248401118184111715611f2557505050505090565b8285019150815181811115611f3d5750505050505090565b843d8701016020828501011115611f575750505050505090565b611f666020828601018761178e565b509095945050505050565b60208082526028908201527f455243313135353a204552433131353552656365697665722072656a656374656040820152676420746f6b656e7360c01b606082015260800190565b6001600160a01b03868116825285166020820152604081018490526060810183905260a060808201819052600090611ff3908301846116ed565b97965050505050505056fea264697066735822122001c03bbbc56454e8ebbe202094f43a4862aa0570ec2122fa654239485d69be9b64736f6c63430008090033",
  "linkReferences": {},
  "deployedLinkReferences": {}
}