{
  "_format": "hh-sol-artifact-1",
  "contractName": "ERC721MintableBurnable",
  "sourceName": "contracts/tokens/ERC721MintableBurnable.sol",
  "abi": [
    {
      "inputs": [
        {
          "internalType": "string",
          "name": "name_",
          "type": "string"
        },
        {
          "internalType": "string",
          "name": "symbol_",
          "type": "string"
        },
        {
          "internalType": "address",
          "name": "owner_",
          "type": "address"
        },
        {
          "internalType": "string",
          "name": "baseURI_",
          "type": "string"
        }
      ],
      "stateMutability": "nonpayable",
      "type": "constructor"
    },
    {
      "anonymous": false,
      "inputs": [
        {
          "indexed": true,
          "internalType": "address",
          "name": "owner",
          "type": "address"
        },
        {
          "indexed": true,
          "internalType": "address",
          "name": "approved",
          "type": "address"
        },
        {
          "indexed": true,
          "internalType": "uint256",
          "name": "tokenId",
          "type": "uint256"
        }
      ],
      "name": "Approval",
      "type": "event"
    },
    {
      "anonymous": false,
      "inputs": [
        {
          "indexed": true,
          "internalType": "address",
          "name": "owner",
          "type": "address"
        },
        {
          "indexed": true,
          "internalType": "address",
          "name": "operator",
          "type": "address"
        },
        {
          "indexed": false,
          "internalType": "bool",
          "name": "approved",
          "type": "bool"
        }
      ],
      "name": "ApprovalForAll",
      "type": "event"
    },
    {
      "anonymous": false,
      "inputs": [
        {
          "indexed": true,
          "internalType": "address",
          "name": "previousOwner",
          "type": "address"
        },
        {
          "indexed": true,
          "internalType": "address",
          "name": "newOwner",
          "type": "address"
        }
      ],
      "name": "OwnershipTransferred",
      "type": "event"
    },
    {
      "anonymous": false,
      "inputs": [
        {
          "indexed": true,
          "internalType": "address",
          "name": "from",
          "type": "address"
        },
        {
          "indexed": true,
          "internalType": "address",
          "name": "to",
          "type": "address"
        },
        {
          "indexed": true,
          "internalType": "uint256",
          "name": "tokenId",
          "type": "uint256"
        }
      ],
      "name": "Transfer",
      "type": "event"
    },
    {
      "inputs": [
        {
          "internalType": "address",
          "name": "to",
          "type": "address"
        },
        {
          "internalType": "uint256",
          "name": "tokenId",
          "type": "uint256"
        }
      ],
      "name": "approve",
      "outputs": [],
      "stateMutability": "nonpayable",
      "type": "function"
    },
    {
      "inputs": [
        {
          "internalType": "address",
          "name": "owner",
          "type": "address"
        }
      ],
      "name": "balanceOf",
      "outputs": [
        {
          "internalType": "uint256",
          "name": "",
          "type": "uint256"
        }
      ],
      "stateMutability": "view",
      "type": "function"
    },
    {
      "inputs": [],
      "name": "baseUri",
      "outputs": [
        {
          "internalType": "string",
          "name": "",
          "type": "string"
        }
      ],
      "stateMutability": "view",
      "type": "function"
    },
    {
      "inputs": [
        {
          "internalType": "address",
          "name": "payer_",
          "type": "address"
        },
        {
          "internalType": "uint256",
          "name": "tokenId_",
          "type": "uint256"
        }
      ],
      "name": "burnFrom",
      "outputs": [],
      "stateMutability": "nonpayable",
      "type": "function"
    },
    {
      "inputs": [
        {
          "internalType": "uint256",
          "name": "tokenId",
          "type": "uint256"
        }
      ],
      "name": "getApproved",
      "outputs": [
        {
          "internalType": "address",
          "name": "",
          "type": "address"
        }
      ],
      "stateMutability": "view",
      "type": "function"
    },
    {
      "inputs": [
        {
          "internalType": "address",
          "name": "owner",
          "type": "address"
        },
        {
          "internalType": "address",
          "name": "operator",
          "type": "address"
        }
      ],
      "name": "isApprovedForAll",
      "outputs": [
        {
          "internalType": "bool",
          "name": "",
          "type": "bool"
        }
      ],
      "stateMutability": "view",
      "type": "function"
    },
    {
      "inputs": [
        {
          "internalType": "address",
          "name": "receiver_",
          "type": "address"
        },
        {
          "internalType": "uint256",
          "name": "tokenId_",
          "type": "uint256"
        },
        {
          "internalType": "string",
          "name": "tokenURI_",
          "type": "string"
        }
      ],
      "name": "mintTo",
      "outputs": [],
      "stateMutability": "nonpayable",
      "type": "function"
    },
    {
      "inputs": [],
      "name": "name",
      "outputs": [
        {
          "internalType": "string",
          "name": "",
          "type": "string"
        }
      ],
      "stateMutability": "view",
      "type": "function"
    },
    {
      "inputs": [],
      "name": "owner",
      "outputs": [
        {
          "internalType": "address",
          "name": "",
          "type": "address"
        }
      ],
      "stateMutability": "view",
      "type": "function"
    },
    {
      "inputs": [
        {
          "internalType": "uint256",
          "name": "tokenId",
          "type": "uint256"
        }
      ],
      "name": "ownerOf",
      "outputs": [
        {
          "internalType": "address",
          "name": "",
          "type": "address"
        }
      ],
      "stateMutability": "view",
      "type": "function"
    },
    {
      "inputs": [],
      "name": "renounceOwnership",
      "outputs": [],
      "stateMutability": "nonpayable",
      "type": "function"
    },
    {
      "inputs": [
        {
          "internalType": "address",
          "name": "from",
          "type": "address"
        },
        {
          "internalType": "address",
          "name": "to",
          "type": "address"
        },
        {
          "internalType": "uint256",
          "name": "tokenId",
          "type": "uint256"
        }
      ],
      "name": "safeTransferFrom",
      "outputs": [],
      "stateMutability": "nonpayable",
      "type": "function"
    },
    {
      "inputs": [
        {
          "internalType": "address",
          "name": "from",
          "type": "address"
        },
        {
          "internalType": "address",
          "name": "to",
          "type": "address"
        },
        {
          "internalType": "uint256",
          "name": "tokenId",
          "type": "uint256"
        },
        {
          "internalType": "bytes",
          "name": "_data",
          "type": "bytes"
        }
      ],
      "name": "safeTransferFrom",
      "outputs": [],
      "stateMutability": "nonpayable",
      "type": "function"
    },
    {
      "inputs": [
        {
          "internalType": "address",
          "name": "operator",
          "type": "address"
        },
        {
          "internalType": "bool",
          "name": "approved",
          "type": "bool"
        }
      ],
      "name": "setApprovalForAll",
      "outputs": [],
      "stateMutability": "nonpayable",
      "type": "function"
    },
    {
      "inputs": [
        {
          "internalType": "bytes4",
          "name": "interfaceId",
          "type": "bytes4"
        }
      ],
      "name": "supportsInterface",
      "outputs": [
        {
          "internalType": "bool",
          "name": "",
          "type": "bool"
        }
      ],
      "stateMutability": "view",
      "type": "function"
    },
    {
      "inputs": [],
      "name": "symbol",
      "outputs": [
        {
          "internalType": "string",
          "name": "",
          "type": "string"
        }
      ],
      "stateMutability": "view",
      "type": "function"
    },
    {
      "inputs": [
        {
          "internalType": "uint256",
          "name": "index",
          "type": "uint256"
        }
      ],
      "name": "tokenByIndex",
      "outputs": [
        {
          "internalType": "uint256",
          "name": "",
          "type": "uint256"
        }
      ],
      "stateMutability": "view",
      "type": "function"
    },
    {
      "inputs": [
        {
          "internalType": "address",
          "name": "owner",
          "type": "address"
        },
        {
          "internalType": "uint256",
          "name": "index",
          "type": "uint256"
        }
      ],
      "name": "tokenOfOwnerByIndex",
      "outputs": [
        {
          "internalType": "uint256",
          "name": "",
          "type": "uint256"
        }
      ],
      "stateMutability": "view",
      "type": "function"
    },
    {
      "inputs": [
        {
          "internalType": "uint256",
          "name": "tokenId",
          "type": "uint256"
        }
      ],
      "name": "tokenURI",
      "outputs": [
        {
          "internalType": "string",
          "name": "",
          "type": "string"
        }
      ],
      "stateMutability": "view",
      "type": "function"
    },
    {
      "inputs": [],
      "name": "totalSupply",
      "outputs": [
        {
          "internalType": "uint256",
          "name": "",
          "type": "uint256"
        }
      ],
      "stateMutability": "view",
      "type": "function"
    },
    {
      "inputs": [
        {
          "internalType": "address",
          "name": "from",
          "type": "address"
        },
        {
          "internalType": "address",
          "name": "to",
          "type": "address"
        },
        {
          "internalType": "uint256",
          "name": "tokenId",
          "type": "uint256"
        }
      ],
      "name": "transferFrom",
      "outputs": [],
      "stateMutability": "nonpayable",
      "type": "function"
    },
    {
      "inputs": [
        {
          "internalType": "address",
          "name": "newOwner",
          "type": "address"
        }
      ],
      "name": "transferOwnership",
      "outputs": [],
      "stateMutability": "nonpayable",
      "type": "function"
    }
  ],
  "bytecode": "0x60806040523480156200001157600080fd5b506040516200242d3803806200242d833981016040819052620000349162000338565b83836200004133620000a0565b815162000056906001906020850190620001c5565b5080516200006c906002906020840190620001c5565b5050506200008082620000f060201b60201c565b80516200009590600c906020840190620001c5565b505050505062000428565b600080546001600160a01b038381166001600160a01b0319831681178455604051919092169283917f8be0079c531659141344cd1fd0a4f28419497f9722a3daafe3b4186f6b6457e09190a35050565b6000546001600160a01b03163314620001505760405162461bcd60e51b815260206004820181905260248201527f4f776e61626c653a2063616c6c6572206973206e6f7420746865206f776e657260448201526064015b60405180910390fd5b6001600160a01b038116620001b75760405162461bcd60e51b815260206004820152602660248201527f4f776e61626c653a206e6577206f776e657220697320746865207a65726f206160448201526564647265737360d01b606482015260840162000147565b620001c281620000a0565b50565b828054620001d390620003eb565b90600052602060002090601f016020900481019282620001f7576000855562000242565b82601f106200021257805160ff191683800117855562000242565b8280016001018555821562000242579182015b828111156200024257825182559160200191906001019062000225565b506200025092915062000254565b5090565b5b8082111562000250576000815560010162000255565b634e487b7160e01b600052604160045260246000fd5b600082601f8301126200029357600080fd5b81516001600160401b0380821115620002b057620002b06200026b565b604051601f8301601f19908116603f01168101908282118183101715620002db57620002db6200026b565b81604052838152602092508683858801011115620002f857600080fd5b600091505b838210156200031c5785820183015181830184015290820190620002fd565b838211156200032e5760008385830101525b9695505050505050565b600080600080608085870312156200034f57600080fd5b84516001600160401b03808211156200036757600080fd5b620003758883890162000281565b955060208701519150808211156200038c57600080fd5b6200039a8883890162000281565b604088015190955091506001600160a01b0382168214620003ba57600080fd5b606087015191935080821115620003d057600080fd5b50620003df8782880162000281565b91505092959194509250565b600181811c908216806200040057607f821691505b602082108114156200042257634e487b7160e01b600052602260045260246000fd5b50919050565b611ff580620004386000396000f3fe608060405234801561001057600080fd5b50600436106101425760003560e01c8063715018a6116100b85780639f6ed25f1161007c5780639f6ed25f14610284578063a22cb46514610297578063b88d4fde146102aa578063c87b56dd146102bd578063e985e9c5146102d0578063f2fde38b146102e357600080fd5b8063715018a61461024857806379cc6790146102505780638da5cb5b1461026357806395d89b41146102745780639abc83201461027c57600080fd5b806323b872dd1161010a57806323b872dd146101d65780632f745c59146101e957806342842e0e146101fc5780634f6ccce71461020f5780636352211e1461022257806370a082311461023557600080fd5b806301ffc9a71461014757806306fdde031461016f578063081812fc14610184578063095ea7b3146101af57806318160ddd146101c4575b600080fd5b61015a610155366004611a33565b6102f6565b60405190151581526020015b60405180910390f35b610177610307565b6040516101669190611aa8565b610197610192366004611abb565b610399565b6040516001600160a01b039091168152602001610166565b6101c26101bd366004611af0565b610426565b005b6009545b604051908152602001610166565b6101c26101e4366004611b1a565b61053c565b6101c86101f7366004611af0565b61056d565b6101c261020a366004611b1a565b610603565b6101c861021d366004611abb565b61061e565b610197610230366004611abb565b6106b1565b6101c8610243366004611b56565b610728565b6101c26107af565b6101c261025e366004611af0565b6107e5565b6000546001600160a01b0316610197565b6101776108bc565b6101776108cb565b6101c2610292366004611b71565b610959565b6101c26102a5366004611bf8565b6109d9565b6101c26102b8366004611c4a565b6109e4565b6101776102cb366004611abb565b610a16565b61015a6102de366004611d26565b610a21565b6101c26102f1366004611b56565b610a4f565b600061030182610aea565b92915050565b60606001805461031690611d59565b80601f016020809104026020016040519081016040528092919081815260200182805461034290611d59565b801561038f5780601f106103645761010080835404028352916020019161038f565b820191906000526020600020905b81548152906001019060200180831161037257829003601f168201915b5050505050905090565b60006103a482610b0f565b61040a5760405162461bcd60e51b815260206004820152602c60248201527f4552433732313a20617070726f76656420717565727920666f72206e6f6e657860448201526b34b9ba32b73a103a37b5b2b760a11b60648201526084015b60405180910390fd5b506000908152600560205260409020546001600160a01b031690565b6000610431826106b1565b9050806001600160a01b0316836001600160a01b0316141561049f5760405162461bcd60e51b815260206004820152602160248201527f4552433732313a20617070726f76616c20746f2063757272656e74206f776e656044820152603960f91b6064820152608401610401565b336001600160a01b03821614806104bb57506104bb8133610a21565b61052d5760405162461bcd60e51b815260206004820152603860248201527f4552433732313a20617070726f76652063616c6c6572206973206e6f74206f7760448201527f6e6572206e6f7220617070726f76656420666f7220616c6c00000000000000006064820152608401610401565b6105378383610b2c565b505050565b6105463382610b9a565b6105625760405162461bcd60e51b815260040161040190611d94565b610537838383610c64565b600061057883610728565b82106105da5760405162461bcd60e51b815260206004820152602b60248201527f455243373231456e756d657261626c653a206f776e657220696e646578206f7560448201526a74206f6620626f756e647360a81b6064820152608401610401565b506001600160a01b03919091166000908152600760209081526040808320938352929052205490565b610537838383604051806020016040528060008152506109e4565b600061062960095490565b821061068c5760405162461bcd60e51b815260206004820152602c60248201527f455243373231456e756d657261626c653a20676c6f62616c20696e646578206f60448201526b7574206f6620626f756e647360a01b6064820152608401610401565b6009828154811061069f5761069f611de5565b90600052602060002001549050919050565b6000818152600360205260408120546001600160a01b0316806103015760405162461bcd60e51b815260206004820152602960248201527f4552433732313a206f776e657220717565727920666f72206e6f6e657869737460448201526832b73a103a37b5b2b760b91b6064820152608401610401565b60006001600160a01b0382166107935760405162461bcd60e51b815260206004820152602a60248201527f4552433732313a2062616c616e636520717565727920666f7220746865207a65604482015269726f206164647265737360b01b6064820152608401610401565b506001600160a01b031660009081526004602052604090205490565b6000546001600160a01b031633146107d95760405162461bcd60e51b815260040161040190611dfb565b6107e36000610e0b565b565b6000546001600160a01b0316331461080f5760405162461bcd60e51b815260040161040190611dfb565b816001600160a01b0316610822826106b1565b6001600160a01b031614801561085757503361083d82610399565b6001600160a01b0316148061085757506108578233610a21565b6108af5760405162461bcd60e51b8152602060048201526024808201527f4552433732314d696e7461626c654275726e61626c653a206e6f7420617070726044820152631bdd995960e21b6064820152608401610401565b6108b881610e5b565b5050565b60606002805461031690611d59565b600c80546108d890611d59565b80601f016020809104026020016040519081016040528092919081815260200182805461090490611d59565b80156109515780601f1061092657610100808354040283529160200191610951565b820191906000526020600020905b81548152906001019060200180831161093457829003601f168201915b505050505081565b6000546001600160a01b031633146109835760405162461bcd60e51b815260040161040190611dfb565b61098d8484610e64565b80156109d3576109d38383838080601f016020809104026020016040519081016040528093929190818152602001838380828437600092019190915250610e7e92505050565b50505050565b6108b8338383610f09565b6109ee3383610b9a565b610a0a5760405162461bcd60e51b815260040161040190611d94565b6109d384848484610fd8565b60606103018261100b565b6001600160a01b03918216600090815260066020908152604080832093909416825291909152205460ff1690565b6000546001600160a01b03163314610a795760405162461bcd60e51b815260040161040190611dfb565b6001600160a01b038116610ade5760405162461bcd60e51b815260206004820152602660248201527f4f776e61626c653a206e6577206f776e657220697320746865207a65726f206160448201526564647265737360d01b6064820152608401610401565b610ae781610e0b565b50565b60006001600160e01b0319821663780e9d6360e01b148061030157506103018261116d565b6000908152600360205260409020546001600160a01b0316151590565b600081815260056020526040902080546001600160a01b0319166001600160a01b0384169081179091558190610b61826106b1565b6001600160a01b03167f8c5be1e5ebec7d5bd14f71427d1e84f3dd0314c0f7b2291e5b200ac8c7c3b92560405160405180910390a45050565b6000610ba582610b0f565b610c065760405162461bcd60e51b815260206004820152602c60248201527f4552433732313a206f70657261746f7220717565727920666f72206e6f6e657860448201526b34b9ba32b73a103a37b5b2b760a11b6064820152608401610401565b6000610c11836106b1565b9050806001600160a01b0316846001600160a01b03161480610c385750610c388185610a21565b80610c5c5750836001600160a01b0316610c5184610399565b6001600160a01b0316145b949350505050565b826001600160a01b0316610c77826106b1565b6001600160a01b031614610cdb5760405162461bcd60e51b815260206004820152602560248201527f4552433732313a207472616e736665722066726f6d20696e636f72726563742060448201526437bbb732b960d91b6064820152608401610401565b6001600160a01b038216610d3d5760405162461bcd60e51b8152602060048201526024808201527f4552433732313a207472616e7366657220746f20746865207a65726f206164646044820152637265737360e01b6064820152608401610401565b610d488383836111bd565b610d53600082610b2c565b6001600160a01b0383166000908152600460205260408120805460019290610d7c908490611e46565b90915550506001600160a01b0382166000908152600460205260408120805460019290610daa908490611e5d565b909155505060008181526003602052604080822080546001600160a01b0319166001600160a01b0386811691821790925591518493918716917fddf252ad1be2c89b69c2b068fc378daa952ba7f163c4a11628f55a4df523b3ef91a4505050565b600080546001600160a01b038381166001600160a01b0319831681178455604051919092169283917f8be0079c531659141344cd1fd0a4f28419497f9722a3daafe3b4186f6b6457e09190a35050565b610ae7816111c8565b6108b8828260405180602001604052806000815250611208565b610e8782610b0f565b610eea5760405162461bcd60e51b815260206004820152602e60248201527f45524337323155524953746f726167653a2055524920736574206f66206e6f6e60448201526d32bc34b9ba32b73a103a37b5b2b760911b6064820152608401610401565b6000828152600b6020908152604090912082516105379284019061194e565b816001600160a01b0316836001600160a01b03161415610f6b5760405162461bcd60e51b815260206004820152601960248201527f4552433732313a20617070726f766520746f2063616c6c6572000000000000006044820152606401610401565b6001600160a01b03838116600081815260066020908152604080832094871680845294825291829020805460ff191686151590811790915591519182527f17307eab39ab6107e8899845ad3d59bd9653f200f220920489ca2b5937696c31910160405180910390a3505050565b610fe3848484610c64565b610fef8484848461123b565b6109d35760405162461bcd60e51b815260040161040190611e75565b606061101682610b0f565b61107c5760405162461bcd60e51b815260206004820152603160248201527f45524337323155524953746f726167653a2055524920717565727920666f72206044820152703737b732bc34b9ba32b73a103a37b5b2b760791b6064820152608401610401565b6000828152600b60205260408120805461109590611d59565b80601f01602080910402602001604051908101604052809291908181526020018280546110c190611d59565b801561110e5780601f106110e35761010080835404028352916020019161110e565b820191906000526020600020905b8154815290600101906020018083116110f157829003601f168201915b50505050509050600061111f611348565b9050805160001415611132575092915050565b81511561116457808260405160200161114c929190611ec7565b60405160208183030381529060405292505050919050565b610c5c84611357565b60006001600160e01b031982166380ac58cd60e01b148061119e57506001600160e01b03198216635b5e139f60e01b145b8061030157506301ffc9a760e01b6001600160e01b0319831614610301565b610537838383611422565b6111d1816114da565b6000818152600b6020526040902080546111ea90611d59565b159050610ae7576000818152600b60205260408120610ae7916119d2565b6112128383611581565b61121f600084848461123b565b6105375760405162461bcd60e51b815260040161040190611e75565b60006001600160a01b0384163b1561133d57604051630a85bd0160e11b81526001600160a01b0385169063150b7a029061127f903390899088908890600401611ef6565b602060405180830381600087803b15801561129957600080fd5b505af19250505080156112c9575060408051601f3d908101601f191682019092526112c691810190611f33565b60015b611323573d8080156112f7576040519150601f19603f3d011682016040523d82523d6000602084013e6112fc565b606091505b50805161131b5760405162461bcd60e51b815260040161040190611e75565b805181602001fd5b6001600160e01b031916630a85bd0160e11b149050610c5c565b506001949350505050565b6060600c805461031690611d59565b606061136282610b0f565b6113c65760405162461bcd60e51b815260206004820152602f60248201527f4552433732314d657461646174613a2055524920717565727920666f72206e6f60448201526e3732bc34b9ba32b73a103a37b5b2b760891b6064820152608401610401565b60006113d0611348565b905060008151116113f0576040518060200160405280600081525061141b565b806113fa846116c0565b60405160200161140b929190611ec7565b6040516020818303038152906040525b9392505050565b6001600160a01b03831661147d5761147881600980546000838152600a60205260408120829055600182018355919091527f6e1540171b6c0c960b71a7020d9f60077f6af931a8bbf590da0223dacf75c7af0155565b6114a0565b816001600160a01b0316836001600160a01b0316146114a0576114a083826117be565b6001600160a01b0382166114b7576105378161185b565b826001600160a01b0316826001600160a01b03161461053757610537828261190a565b60006114e5826106b1565b90506114f3816000846111bd565b6114fe600083610b2c565b6001600160a01b0381166000908152600460205260408120805460019290611527908490611e46565b909155505060008281526003602052604080822080546001600160a01b0319169055518391906001600160a01b038416907fddf252ad1be2c89b69c2b068fc378daa952ba7f163c4a11628f55a4df523b3ef908390a45050565b6001600160a01b0382166115d75760405162461bcd60e51b815260206004820181905260248201527f4552433732313a206d696e7420746f20746865207a65726f20616464726573736044820152606401610401565b6115e081610b0f565b1561162d5760405162461bcd60e51b815260206004820152601c60248201527f4552433732313a20746f6b656e20616c7265616479206d696e746564000000006044820152606401610401565b611639600083836111bd565b6001600160a01b0382166000908152600460205260408120805460019290611662908490611e5d565b909155505060008181526003602052604080822080546001600160a01b0319166001600160a01b03861690811790915590518392907fddf252ad1be2c89b69c2b068fc378daa952ba7f163c4a11628f55a4df523b3ef908290a45050565b6060816116e45750506040805180820190915260018152600360fc1b602082015290565b8160005b811561170e57806116f881611f50565b91506117079050600a83611f81565b91506116e8565b60008167ffffffffffffffff81111561172957611729611c34565b6040519080825280601f01601f191660200182016040528015611753576020820181803683370190505b5090505b8415610c5c57611768600183611e46565b9150611775600a86611f95565b611780906030611e5d565b60f81b81838151811061179557611795611de5565b60200101906001600160f81b031916908160001a9053506117b7600a86611f81565b9450611757565b600060016117cb84610728565b6117d59190611e46565b600083815260086020526040902054909150808214611828576001600160a01b03841660009081526007602090815260408083208584528252808320548484528184208190558352600890915290208190555b5060009182526008602090815260408084208490556001600160a01b039094168352600781528383209183525290812055565b60095460009061186d90600190611e46565b6000838152600a60205260408120546009805493945090928490811061189557611895611de5565b9060005260206000200154905080600983815481106118b6576118b6611de5565b6000918252602080832090910192909255828152600a909152604080822084905585825281205560098054806118ee576118ee611fa9565b6001900381819060005260206000200160009055905550505050565b600061191583610728565b6001600160a01b039093166000908152600760209081526040808320868452825280832085905593825260089052919091209190915550565b82805461195a90611d59565b90600052602060002090601f01602090048101928261197c57600085556119c2565b82601f1061199557805160ff19168380011785556119c2565b828001600101855582156119c2579182015b828111156119c25782518255916020019190600101906119a7565b506119ce929150611a08565b5090565b5080546119de90611d59565b6000825580601f106119ee575050565b601f016020900490600052602060002090810190610ae791905b5b808211156119ce5760008155600101611a09565b6001600160e01b031981168114610ae757600080fd5b600060208284031215611a4557600080fd5b813561141b81611a1d565b60005b83811015611a6b578181015183820152602001611a53565b838111156109d35750506000910152565b60008151808452611a94816020860160208601611a50565b601f01601f19169290920160200192915050565b60208152600061141b6020830184611a7c565b600060208284031215611acd57600080fd5b5035919050565b80356001600160a01b0381168114611aeb57600080fd5b919050565b60008060408385031215611b0357600080fd5b611b0c83611ad4565b946020939093013593505050565b600080600060608486031215611b2f57600080fd5b611b3884611ad4565b9250611b4660208501611ad4565b9150604084013590509250925092565b600060208284031215611b6857600080fd5b61141b82611ad4565b60008060008060608587031215611b8757600080fd5b611b9085611ad4565b935060208501359250604085013567ffffffffffffffff80821115611bb457600080fd5b818701915087601f830112611bc857600080fd5b813581811115611bd757600080fd5b886020828501011115611be957600080fd5b95989497505060200194505050565b60008060408385031215611c0b57600080fd5b611c1483611ad4565b915060208301358015158114611c2957600080fd5b809150509250929050565b634e487b7160e01b600052604160045260246000fd5b60008060008060808587031215611c6057600080fd5b611c6985611ad4565b9350611c7760208601611ad4565b925060408501359150606085013567ffffffffffffffff80821115611c9b57600080fd5b818701915087601f830112611caf57600080fd5b813581811115611cc157611cc1611c34565b604051601f8201601f19908116603f01168101908382118183101715611ce957611ce9611c34565b816040528281528a6020848701011115611d0257600080fd5b82602086016020830137600060208483010152809550505050505092959194509250565b60008060408385031215611d3957600080fd5b611d4283611ad4565b9150611d5060208401611ad4565b90509250929050565b600181811c90821680611d6d57607f821691505b60208210811415611d8e57634e487b7160e01b600052602260045260246000fd5b50919050565b60208082526031908201527f4552433732313a207472616e736665722063616c6c6572206973206e6f74206f6040820152701ddb995c881b9bdc88185c1c1c9bdd9959607a1b606082015260800190565b634e487b7160e01b600052603260045260246000fd5b6020808252818101527f4f776e61626c653a2063616c6c6572206973206e6f7420746865206f776e6572604082015260600190565b634e487b7160e01b600052601160045260246000fd5b600082821015611e5857611e58611e30565b500390565b60008219821115611e7057611e70611e30565b500190565b60208082526032908201527f4552433732313a207472616e7366657220746f206e6f6e20455243373231526560408201527131b2b4bb32b91034b6b83632b6b2b73a32b960711b606082015260800190565b60008351611ed9818460208801611a50565b835190830190611eed818360208801611a50565b01949350505050565b6001600160a01b0385811682528416602082015260408101839052608060608201819052600090611f2990830184611a7c565b9695505050505050565b600060208284031215611f4557600080fd5b815161141b81611a1d565b6000600019821415611f6457611f64611e30565b5060010190565b634e487b7160e01b600052601260045260246000fd5b600082611f9057611f90611f6b565b500490565b600082611fa457611fa4611f6b565b500690565b634e487b7160e01b600052603160045260246000fdfea26469706673582212205767e7146e90c7a83b8c233a8bd03b934da04af8fd8ed725f83987d0cb90bc0264736f6c63430008090033",
  "linkReferences": {},
  "deployedLinkReferences": {}
}